:020000040800F2
:100000000050002081300008B5300008B51C000801
:1000100000000000000000000000000000000000E0
:10002000000000000000000000000000B5300008E3
:100030000000000000000000B5300008B5300008E6
:10004000B5300008B5300008B5300008B5300008FC
:10005000B5300008B5300008B5300008B5300008EC
:10006000B5300008B5300008B5300008B5300008DC
:10007000B5300008B5300008B5300008B5300008CC
:10008000B5300008B5300008B530000800000000A9
:10009000B5300008B5300008B5300008B5300008AC
:1000A000B5300008B5300008B5300008B53000089C
:1000B000B5300008B530000800000000B530000879
:1000C00010B5064C2378002B07D1054B002B02D02E
:1000D000044800E000BF0123237010BD6001002030
:1000E0000000000030740008044B10B5002B03D052
:1000F0000349044800E000BF10BDC04600000000F6
:100100006401002030740008164B002B00D1144B02
:100110009D46402292029A1A924600218B460F4633
:100120001348144A121A05F082FE0F4B002B00D020
:1001300098470E4B002B00D0984700200021040068
:100140000D000D48002802D00C4802F036FA05F0E8
:1001500033FE2000290002F0EDFB02F02BFAC0462E
:10016000000008000050002000000000ED280008FA
:1001700060010020C0090020BB250008000000002D
:1001800010B5012800D010BD0D4B9942FBD10D4C8C
:100190001C220021200005F04AFE1521200001F05C
:1001A00039F89623084C9B010A220921200000F00F
:1001B00061FB064A0649200002F0FAF9E3E7C0466F
:1001C000FFFF00009C0400207C010020C0000020F4
:1001D000DD02000810B502490120FFF7D1FF10BD74
:1001E000FFFF000010B59AB0002412941C220021D9
:1001F00013A805F01CFE009402230622114902A850
:1002000002F062FE0DE0104A926813600F4C02008B
:1002100012A9200000F03AFC182202A9200000F0E8
:1002200035FC202212A9094800F062FB0028F8D012
:10023000054B5A6812681B681342E4D0024AD26820
:100240001360E3E7F46700089C0400207C010020B1
:1002500010B503681B6901220021984710BD10B535
:1002600003681B6900220021984710BD16204042F8
:100270007047C5239B00C15400207047E438C52354
:100280009B00C15400207047C5239B00C05C704791
:10029000E438C5239B00C05C704700207047000015
:1002A00008B4024B9C46E43808BC60479B02000837
:1002B0000120704708B4024B9C46E43808BC6047F4
:1002C000B10200081D2040427047000008B4024BF4
:1002D0009C46E43808BC6047C502000810B504001D
:1002E000084B03604833E4228350C7239B00C05867
:1002F000002802D003685B689847200000F012FED7
:10030000200010BD4468000808B4024B9C46E43845
:1003100008BC6047DD02000810B50400FFF7DEFFEF
:10032000C8218900200002F091F9200010BD0000D2
:1003300008B4024B9C46E43808BC60471903000827
:1003400010B500F02BFE002010BD000008B4024BD9
:100350009C46E43808BC60474103000810B500F033
:1003600079FE002010BD000008B4024B9C46E43822
:1003700008BC60475D03000870B505000CE08423ED
:100380005B00E35C002B15D0002401F079FE002C0B
:1003900012D1012002F0D6FA2C00F534FF3401F01E
:1003A00059FE80235B00E2580433E3589A42E6D0BA
:1003B0000024EAE70124E8E7002070BD08B4024BFE
:1003C0009C46E43808BC60477903000810B5C72391
:1003D0009B00C058002805D000F04BFC002803D03B
:1003E000012000E0002010BD0020FCE770B50400F3
:1003F0000500E83501F02EFE80235B00EA58043347
:10040000EB589A420FD0002501F03AFE002D13D090
:1004100000252000FFF7DAFF00280FD080239B0182
:100420001D43280070BD84235B00EB5C002B01D0D2
:100430000025E9E70125E7E70125EAE701F00AFEE3
:10044000BF239B009C466444247801F019FE002CD5
:10045000E7D110231D432DB2E3E7000008B4024B9F
:100460009C46E43808BC6047ED03000884B070B5D2
:10047000050005AC05910692079301F0EBFDC12341
:100480009B00EB1807CC07C322681A60002A05D02E
:100490000C492800FFF7AAFF002805D101F0F0FD64
:1004A00070BC08BC04B01847C1239B00E818C3689F
:1004B000002B01D09847F1E7FD2252000249034882
:1004C00001F0E8FCFF7F00001068000830680008B9
:1004D00008B4024B9C46E43808BC60476D04000831
:1004E00010B5C4239B00C358002B07D0C1239B0029
:1004F0009C466044C368002B01D0984710BDFD2284
:1005000052000249024801F0C5FCC04610680008CC
:100510003068000830B587B00400002501950095CB
:100520000299039A049B00F0A3FC024BE55407B028
:1005300030BDC04616030000F0B5C64600B5060043
:100540000400E83401F086FD80235B00E2580433A8
:10055000E3589A4204D00023984601F091FD1BE035
:1005600084235B00E35C002B02D000239846F4E771
:1005700001239846F1E780235B00E1584A1CE250D2
:1005800065549A4233D080235B00E2580433E35829
:100590009A422FD001F074FD01F05CFD3300F1337D
:1005A000FF331D7801F06CFD002D28D1300000F0E4
:1005B0003FFC002823D0300000F0DEFCC5B201F083
:1005C00049FD01F047FD84235B00E75C01F058FD25
:1005D000002FD0D082225200A3580133A350043AF6
:1005E0009342C8D182235B000022E250C3E700227D
:1005F000E250C8E784235B000122E254CAE71A4BA9
:10060000F35C002B05D14346002B10D104BC90466F
:10061000F0BD01F01FFD3300F133FF331D7801F011
:100620002FFD002DEFD03000FFF774FFEBE701F056
:1006300011FD80235B00E2580433E3589A420AD04C
:100640000023984601F01CFD4346002BDED130000C
:10065000FFF746FFDAE784235B00E35C002BF1D071
:1006600000239846EEE7C0461603000030B587B079
:10067000040000250123019300950299039A049B2D
:1006800000F0F6FB014BE55407B030BD1503000048
:10069000F0B5C64600B50500002601F0DBFCBF231F
:1006A0009B00EB181B78984601F0EAFC14E08423C9
:1006B0005B00E35C002B01D0002721E001271FE055
:1006C000002262502AE0002401F0DAFC002C2BD03A
:1006D0003100280000F055FC280000F0B9FB00288C
:1006E00022D02C00F534FF3401F0B4FC01F0B2FC50
:1006F00080235B00E2580433E3589A42D7D00027A6
:1007000001F0BEFC002FDED1822149006258531C4B
:100710006350A65C802252009342D1D084235B00B8
:100720000022E2540124CFE71C4BEC5C002C05D1E5
:100730004346002B1ED104BC9046F0BD2E00F5367A
:10074000FF3601F087FC80235B00F2580433F35836
:100750009A4208D0002401F093FC002CE8D0280035
:10076000FFF784FFE4E784235B00F35C002BF2D007
:100770000024F0E701F06EFCBF239B00EB181C780F
:1007800001F07EFC002CD6D12800FFF71FFE0028C8
:10079000D1D12800FFF7A4FECDE7C0461503000025
:1007A000F0B5C64600B505000E0017000CE0842326
:1007B0005B00E35C002B15D0002401F061FC002CF1
:1007C00012D12800FFF764FF2C00F534FF3401F04C
:1007D00041FC80235B00E1580433E3589942E6D0A2
:1007E0000024EAE70124E8E70024BC4208D2731C95
:1007F00098463178280000F0C4FB01344646F4E7FF
:10080000380004BC9046F0BD70B588B06C460092CC
:10081000636003AB1A0060CC60C205AA059106A90B
:1008200030CB30C1034BC360030032CA32C308B0BF
:1008300070BDC0466B0C000810B58AB004000B4AAE
:100840000023010006A8FFF7DFFF00230193099BA7
:10085000039300930699079A089B200000F008FB79
:10086000034B0122E2540AB010BDC046390500080E
:100870001603000010B5040000F066FA184B236060
:100880004833E422A3502200E932FF3200231360F0
:100890000432136004321370BD229200A218136058
:1008A000BE229200A2181360BF229200A2181370F9
:1008B000C1229200A218D3600122C521890062548E
:1008C0000849635408496354084962540131625429
:1008D000C7229200A3502000FFF7AEFF200010BDFA
:1008E0004468000815030000160300001703000009
:1008F000F8B5DE4657464E464546E0B50500894602
:100900009046002A19D100203CBC90469946A24648
:10091000AB46F8BD84235B00E35C002B1AD00026B5
:1009200001F0AEFB002E17D0C5239B00EB5C002B23
:1009300000D181E0012002F005F82C00E83401F03C
:1009400089FB80235B00E0580433E3589842E1D0F0
:100950000026E5E70126E3E7002719E084235B0092
:10096000E35C002B01D0B2461EE001239A461BE057
:1009700084235B00E35C002B29D101339A4626E0F7
:1009800084235B000022E25401F07AFB0137D94650
:10099000474531D201F05EFB80235B00E25804330F
:1009A000E3589A42DAD0B24601F06AFB5346002B74
:1009B00022D101334B449B4601F04CFB01F04AFB32
:1009C00080235B00E2580433E3589A42D0D001F010
:1009D00057FB5346002BD7D10533FF33E258511C48
:1009E000E150A25C49460A70E258043B9A42C7D1E2
:1009F00004330022E250C3E701F02CFBC6239B0026
:100A0000EB5C002B03D00E4BEB5C002B03D001F012
:100A100037FB380078E72800FFF78EFD01F01AFB5E
:100A20002B00F133FF331C7801F02AFB002CEED1B0
:100A30002800FFF701FFEAE70B20404264E7C046C9
:100A40001603000008B4024B9C46E43808BC60471B
:100A5000F108000830B58BB004000A4A00230100F9
:100A600006A8FFF7D1FE01250195099B039300938A
:100A70000699079A089B200000F0FAF9024BE5540A
:100A80000BB030BD9106000815030000F0B5D64646
:100A90004F464646C0B507000E009146002A05D1D4
:100AA00000201CBC90469946A246F0BD01F0CEFA4B
:100AB000002801D1002559E04A4631003800FFF7EF
:100AC0006FFEEEE780235B00E258511CE150307866
:100AD000A054994235D080235B00E2580433E35898
:100AE0009A4231D001F0CCFA013546464D4530D21C
:100AF00001F0B0FABF239B00FB181C7801F0C0FA8C
:100B0000002C26D13C00F534FF34731C984601F0CC
:100B1000A1FA01F09FFA84235B00E35C9A4601F09E
:100B2000AFFA5346002BCDD082225200A358013396
:100B3000A350043A9342C5D182235B000022E250C5
:100B4000C0E70022E250C6E784235B000122E254A2
:100B5000C8E701F07FFA294BFC5C002C04D0284B3D
:100B6000FB5C9846002B20D001F08AFA4D453ED21E
:100B700001F070FABF239B00FB181C7801F080FA8B
:100B8000002CB3D0C5239B00FB5C002B2FD0012091
:100B900001F0D8FE01F05EFABF239B00FB181C7821
:100BA00001F06EFA002CF2D1A0E73800FFF770FDDB
:100BB000FA235B009A46BA4401F04CFA80235B00AA
:100BC0005246D25804335146CB589A4208D001F0CD
:100BD00057FA4346002BC7D13800FFF73BFFC3E766
:100BE00084235B00CB5C002BF1D1A046EFE7002D06
:100BF00001D0280055E70B20404252E717030000C0
:100C00001503000008B4024B9C46E43808BC60475A
:100C10008D0A000800B583B0009001914B10106858
:100C2000C018CB0703D4009B984703B000BD0368EE
:100C3000009A9B58F8E710B503000A00006859684D
:100C4000FFF7E8FF10BD10B5FFF7F5FF10BD10B5B9
:100C500001000430FFF7F7FF10BD10B5FFF7F7FFF5
:100C600010BD10B5FFF7F9FF10BD10B5FFF7F9FF84
:100C700010BD83681B6842681A4201D0012070478A
:100C80000020FCE77047704730B583B04268816848
:100C90006C4603000C3321CB21C4002A0AD0009BF0
:100CA000002B09D0019C60101018E20701D50268E2
:100CB000D358984703B030BD0198C007FAD5F1E783
:100CC00070B5040005004C35BE23C15EC023C25E72
:100CD000280004F03DFDC823E658002E19D0CC238F
:100CE000E35858102018DB0701D503689E59D42318
:100CF000E35ED222A25ED021615CB047B823E15806
:100D0000280004F00FFC22000449280003F0D8FD5D
:100D100070BD0433E358DB07F0D5E0E7210D000890
:100D200010B5090198314018C368002B01D001D0DB
:100D3000984710BDFD2252000149024801F0AAF86F
:100D40001068000830680008F0B5CE46474680B508
:100D500085B00400884617009946324B083303607B
:100D6000314B436000258560029503956E4608224D
:100D700002A9300005F052F82461656123001833A0
:100D800006CE06C3294BE36025622423E5540133D4
:100D9000E554656365642333E5540133E55420006D
:100DA0004C304C22002105F042F8250098350120F6
:100DB00003E00023EB60103501380028F9DAB8238E
:100DC0004A46E25001220433E2540133E254013333
:100DD0004146E1520233E7520023C42163500431FB
:100DE00063500431635004316354D139D22021520D
:100DF00002302152D93163500431635004316350C1
:100E0000A368581020181A4209D0036862689B58DA
:100E10009847200005B00CBC90469946F0BD636829
:100E2000F6E7C046D4680008C10C0008890C000829
:100E300070B5040003681B68984720004C3004F02C
:100E4000F1FA050023685B6820009847280070BD10
:100E500070B5040003681B68984720004C3004F00C
:100E6000F9FA050023685B6820009847280070BDE8
:100E700084B070B5040005910692079309AB1D7804
:100E800003681B689847BC23E35C002B01D0002D4E
:100E900016D0BD23E35C002B01D0012D10D02D0115
:100EA0006519983505AB2A0023CB23C21B68136054
:100EB00023685B682000984770BC08BC04B01847E2
:100EC00001F0C8F8089B002B1AD02B019833E318C7
:100ED000DB68002B11D02B01E318983305AA43CA15
:100EE00043C3190013680B6020004C300122290015
:100EF00003F0F2FC01F0C4F8DAE701F0C7FAEAE720
:100F00002E019836A619F368002B01D001F0D6FA0D
:100F10000023F36020004C300022290003F0DCFCA9
:100F2000E8E7000030B587B005000D4B08330360DB
:100F300000240AE0E3B20193002300930299039A8C
:100F4000049B2800FFF794FF0134012CF2DD286A8E
:100F5000002801D000F0E8FC280007B030BDC046F2
:100F6000D468000810B50400FFF7DCFFE42120007E
:100F700001F06CFB200010BD10B54C3003F03AFDC1
:100F800010BD10B50C004C3003F0AEFD200010BDBC
:100F900010B54C3004F0C0F910BD000070B504006D
:100FA0000D0003681B689847BC23E35CAB422ED05E
:100FB000002D0CD0BD23E35C002B08D1A368581092
:100FC0002018DB0728D5036862689B58984701F012
:100FD00041F8002D28D0A423E358002B0DD0200089
:100FE0009830C368002B19D0984701F04FFA2000C1
:100FF0004C300122002103F06FFC01F041F8BC23CA
:10100000E554002D03D10133E35C002B19D0236894
:101010005B682000984770BD6368D7E7FD225200E7
:101020000A490B4800F036FF20004C300022002116
:1010300003F052FCA423E358002BDED001F03EFA6B
:10104000DBE72000FFF7A4FFE1E7C04610680008D7
:101050003068000870B504000D0003681B689847ED
:10106000BD23E35CAB422ED0002D0CD0BC23E35C4F
:10107000002B08D1A36858102018DB0728D5036877
:1010800062689B58984700F0E5FF002D28D0B423F4
:10109000E358002B0DD02000A830C368002B19D0D6
:1010A000984701F0F3F920004C300122012103F0B0
:1010B00013FC00F0E5FFBD23E554002D03D1013BF7
:1010C000E35C002B19D023685B682000984770BD53
:1010D0006368D7E7FD2252000A490B4800F0DAFEA8
:1010E00020004C300022012103F0F6FBB423E3582A
:1010F000002BDED001F0E2F9DBE72000FFF748FF2C
:10110000E1E7C046106800083068000810B50368C1
:101110001B68984710BD000010B504000800074B7D
:10112000236000220023A260E36000232361636147
:10113000A161034900F024FB200010BDF468000801
:101140000D11000810B582B004000100083180695B
:10115000009400F05BFB02B010BD10B50100083137
:10116000806900F096FB10BDEFF31083012018405A
:1011700043425841C0B2704710B5FFF7F5FF72B651
:10118000044B1B78002B04D1034B1870014B012238
:101190001A7010BDB9040020B804002010B5FFF784
:1011A000E3FF002808D1074B00221A70064B1B787A
:1011B000002B00D062B610BD36220449044800F06E
:1011C00069FEC046B9040020B8040020F868000891
:1011D00024690008014B18787047C046B904002004
:1011E00070B504000D00160003F008FD6B1C0CD058
:1011F000002E0BD0A36822681A600121200003F0A2
:1012000025FD0021200003F01BFD70BDE36822686E
:101210001A60F2E710B50022FFF7E2FF10BD0000F0
:10122000004870474069000810B5034B1B68002B4D
:1012300001D00248984710BDC40000204069000852
:1012400000B583B0884203D0431C0AD04B1C01D1A7
:1012500003B000BD0023009302000349034801F0DE
:1012600057F80800F4E7C0466C69000830010180B7
:1012700000228B5E5A1C05D0834201D00C31F7E767
:10128000486801E0012040427047000010B582B07C
:101290000400431C0CD0FFF7EBFF431C01D002B04D
:1012A00010BD0023009322000349044801F030F8E8
:1012B00001204042F3E7C046806900083001018008
:1012C00000228B5E5A1C05D0834201D00C31F7E717
:1012D000886801E001204042704743681960704708
:1012E000F0B5CE46474680B585B0040047683A233E
:1012F000FB5C002B74D103685B68984763681B6ACA
:1013000083426DD03B6AC31AFA681A401400002564
:101310003862BB689C46614B9C455BD03B23FB5CC1
:101320009946002B00D177E0D30E69011943500193
:10133000001BA941C30D9846009001914B02414604
:101340000B4300994A0212196B4110001900930EC9
:101350009846009001918B0141460B4300980199FA
:101360008201121A8B4112196B41009201932023C2
:101370005B424A46D11838D4019BCB401C000199EE
:101380004B46D9400D00203B984638D423004246B6
:101390009340190023004A4693401800009A019B8D
:1013A000121A8B41B86AF96A12184B4100920193E4
:1013B000BA62FB6260460021994201D1904209D88D
:1013C00001220023A4185D41009A019B121A8B414F
:1013D000BA62FB623A6B7B6BA4185D413C637D6330
:1013E00005B00CBC90469946F0BD2021891A019B9E
:1013F0008B401900009BD3401C000C43BFE7202109
:101400004B46C91A2300CB4098462B004A469340CE
:10141000190043461943BDE7D30E69011943500132
:10142000001BA941C60D4B023343420212196B4106
:10143000960E990131439001801A99410019694132
:101440006346009300230193009A019B029003914D
:1014500005F07EF804000D0002000B0000980199D1
:1014600005F096F8029A039B121A8B41B86AF96A42
:1014700012184B41BA62FB6200980199994201D15E
:101480009042A7D80120002124184D4100980199CD
:10149000121A8B41BA62FB629CE7C04640420F00C1
:1014A000F0B5C64600B54468206B616B121A8B41DB
:1014B0002569A069E1698B4225D801D1824222D8F1
:1014C000A068224988421BD03B21615C8C460029E0
:1014D0002DD02020404208181DD4110081400F005B
:1014E0001300624693401E0019480021801979417B
:1014F000164A002305F02CF8854204D3050002E0CB
:10150000954200D31500236A9C466544E068284054
:1015100004BC9046F0BD2020401A1100C14088460E
:101520001900604681400F0041460F43D8E7002173
:1015300005F02EF8064A002380185941034A00237B
:1015400005F006F88542DED30500DCE740420F00D7
:101550003F420F00824209D98A4203D9884203D907
:10156000012000E0012070470020FCE7884203D9F9
:101570008A4203D90020F6E70020F4E70120F2E7D1
:1015800070B5040045683A23EB5C002B03D1393376
:10159000EB5C002B00D070BDFFF7A2FE62685368C1
:1015A000002B2BD0106B516B1A685B688B4217D9DC
:1015B0002000FFF775FF06002B6A834218D02368CE
:1015C0001B69984723685B6898470100286A3200C6
:1015D000FFF7C0FF0028DED023685B699847DAE791
:1015E0008B4201D18242E3D823685B699847D2E7F6
:1015F0001C22FF320649074800F04CFC2B6A2A697E
:1016000094466344E868184023681B699847C2E71A
:10161000A0690008C0690008F0B5DE4657464E468E
:101620004546E0B587B00400436838229A5C002A3A
:1016300000D08FE03A329B5C002B00D08AE0036838
:101640001B6898472368DB6998470668002E09D015
:101650001F25002D0DD00123AB40B34209D0013D21
:10166000EDB2F6E70022009213004149414800F034
:101670004FFE43680593043B1C2B00D971E0072201
:101680009A4091460292002398460393029A039B44
:10169000D10E5001801A9941C70D4B023B434202C3
:1016A0000298039980185941870E8B013B438201B0
:1016B000121A8B410298039912184B41029600218D
:1016C0000391029803998018594101225242D3177D
:1016D00080185941029A039B04F03AFF83468A46D8
:1016E000636842461A6063685A6023685B68626890
:1016F000904698474346186263680020002198622C
:10170000D96263689E603B236268D554012213004E
:1017100005998B406168013BCB606368494619615C
:101720006368594699615146D96163680020002178
:10173000186359630023392160684354013160689C
:10174000435438336168CA542000FFF7C9FD2000B4
:10175000FFF716FF07B03CBC90469946A246AB4641
:10176000F0BD0022009213000349044800F0D0FDB0
:10177000E46900080E010480006A00080501048085
:1017800070B504000D00FFF747FF00F063FC29006F
:101790002000FFF7A2FD00F073FC70BD70B50400DF
:1017A00000F058FC2368DB68984763683A229A5C2B
:1017B000002A03D139220121995408E000F060FC8D
:1017C00020E0D168596063681B68002B1BD16368F7
:1017D0005B68002B0DD02000FFF782FD63685A681C
:1017E000166850681D6B596B884202D8E9D1AE4229
:1017F000E7D9392300226168CA542000FFF7C0FEF0
:1018000000F03EFC70BD90689847E0E7F0B5D64622
:101810004F464646C0B58146884692461E0000F0B7
:1018200019FC4846FFF75CFD434652461A605E606D
:10183000089A9A604B465B685C68002301E02300CD
:10184000E468002C06D027686568B54202D8F6D156
:101850005745F4D94246D460002B15D0DA60002BEE
:1018600008D04B465B681A6B5B6B9E4205D801D172
:10187000924502D84846FFF783FE00F001FC1CBCED
:1018800090469946A246F0BD4A465268414651608C
:10189000E5E770B505000C0000F0DCFB6A685368F2
:1018A000A34206D0002B0CD0DA68A24207D0130066
:1018B000F8E7E36853602800FFF762FE01E0E268A2
:1018C000DA6000F0DDFB70BD70B50400FFF7A4FE28
:1018D00000F0C0FB2000FFF703FD63681C6B5D6B2D
:1018E00000F0CEFB2000290070BD10B5FFF7ECFF23
:1018F00010BD7047004870473C6A000810B5034BA4
:101900001B68002B01D00248984710BDC80000207A
:101910003C6A000810B50B000422895E0C229A5E16
:1019200003F016FF10BD000010B5034B1B68002B21
:1019300000D0984710BDC0464005002010B50400F7
:1019400000F088FB200010BD10B5040000F098FBEB
:10195000200010BD70B5040003681B69012200213E
:101960009847051E0EDB23681B6902220021200018
:101970009847060023681B69002229002000984729
:10198000300070BD0600FBE710B50400FFF7C4FB94
:101990000D4B2360A069FFF797FF20626162A06290
:1019A000E162002200232263636300233832A354E0
:1019B0000132A3540132A3540132A3540132A3547F
:1019C0000132A354200010BDC46A000810B5040001
:1019D0003C23C35C002B0BD1FFF7BFFB0023392254
:1019E000A3540132A3543D33E35C002B05D110BD59
:1019F0008E220549054800F04DFA3D230022E254AD
:101A000000F05CFDF3E7C046686A0008906A0008D1
:101A100010B504003031080000F056FA2060616013
:101A2000200010BD30B501220023046B456B121954
:101A30006B4102634363FA2292000023846AC56A01
:101A400012196B418262C36230BD70B5FA229200F6
:101A50000023846AC56A12196B41FFF773FB70BDDE
:101A600070B506000D008869FFF72EFFAA6AEB6AC1
:101A7000801A994104000D000B0001002A1E0BD1B1
:101A8000002D03D1FA208000814205D200220023DC
:101A900032607360300070BD002A09D103D1FA2290
:101AA000D200914204D20122002332607360F1E738
:101AB000002B09DCFA22920000232000002104F010
:101AC00047FD30607160E5E7FA22920000232000B4
:101AD000290004F03DFD30607160DBE7F0B583B0B4
:101AE00005000C003C23CB5C002B23D13933CB5CAD
:101AF000002B1FD16846FFF7B3FF009E019F3823DC
:101B00000022E254FA22920000233000390004F04F
:101B10003FFDA26AE36A80185941A062E162226B2C
:101B2000636BB6185F41266367632E606F602800A1
:101B300003B0F0BDE0220249024800F0ABF9C04614
:101B4000686A00089C6A0008F0B587B004001600B7
:101B50001F003C23C35C002B05D13923C35C002B41
:101B600006D007B0F0BD582239493A4800F092F942
:101B7000010004A8FFF7B2FF0498059A01239742D9
:101B800001D807D00023DBB2002B06D13A33012263
:101B9000E254E6E78642F6D8F4E7210004A8FFF70E
:101BA00037FF32003B0004980599121A8B410092CE
:101BB0000193226A636A02920393FA22920000233D
:101BC0003000390004F0E4FC029E039F36184F41B8
:101BD00039230122E25401330022E2540333E35C4F
:101BE000002B05D1A3691A682023D35C002B17D0E2
:101BF00000980199002902D105D1042803D93D2379
:101C0000E35C002B12D03B230022E2540233E35C5E
:101C1000002B17D032003B002000FFF793FAA0E71B
:101C20003D330122E25400F031FCE1E73B23012285
:101C3000E254094A01235B4292197B412000FFF7DD
:101C400081FA8EE73D230122E25400F01FFCE1E718
:101C5000686A0008906A000860F0FFFF024B80226B
:101C6000D2045A607047C04600ED00E010B5040091
:101C70003923C35C002B0AD039230022C25402331B
:101C8000C35C002B07D13A330132C25403E03C233A
:101C9000C35C002B00D110BD3822835C0133835418
:101CA000FFF7DCFF2000FFF7BDFE2000FFF7CDFEB1
:101CB000F1E70000102304E0202302E0302300E0DD
:101CC00040239C46F0B404AE7546E80801D3EFF318
:101CD00009860E4F0FCE0FC70FBC0FC740464946AF
:101CE00052465B460FC71DCE3100A60A00D3043111
:101CF0006E0900D248311FC7EFF309806946EFF340
:101D0000148663C76046014900F05EF8640600204F
:101D100010B584B0002407E0A300204AD258210067
:101D20001F4800F079F901340C2CF5DD1B4CE36BF6
:101D3000A26B616BA06C0290606C0190206C0090B3
:101D4000184800F069F9184B1968184800F064F950
:101D5000E36C1B070ED5164800F05EF90F4B1B6DA8
:101D6000DB0703D5134800F057F909E0124800F0EB
:101D700053F905E0114800F04FF90F4800F04CF915
:101D8000064BDB6C5B0704D50D4800F045F904B049
:101D900010BD0C4800F040F9F9E7C0466406002089
:101DA000C86A0008D86A000800ED00E0286B000847
:101DB000386B0008486B0008586B00086C6B000813
:101DC0007C6B0008886B000830B583B005000C0000
:101DD00001211A4800F083F8002807D000250023CD
:101DE000009322001649280000F092FA154800F0EE
:101DF00013F9302D18D0402D1BD0202D04D01248BF
:101E000000F00AF9114D03E0114800F005F9114DF9
:101E1000114800F001F9FFF77BFF104800F0FCF8D3
:101E2000064B00221A70DAE70D4800F0F5F80D4D68
:101E3000EEE70D4800F0F0F80C4DE9E7B806002099
:101E4000206C0008946B0008E86B00083D01FF80DF
:101E5000C06B00083E01FF80F46B0008006C0008B6
:101E6000D06B00083F01FF80DC6B00084001FF8061
:101E700010B504F02FF810BD10B57246FFF7F8FF4B
:101E800010BD10B503F0DCFF10BD10B57246FFF7B2
:101E9000F8FF10BD00B583B00B00009200220100D6
:101EA000014800F035FAC0464401FF8070B50500D6
:101EB00000F0D0F82C78E4B201232B7000F0E0F8A9
:101EC000601E8441E0B270BD70B5040000F0C2F83D
:101ED0006568246800F0D4F82000290070BD70B552
:101EE00004000E0000F0B6F82578EDB2267000F080
:101EF000C7F8280070BD70B505000E0000F0AAF804
:101F00002C88A419A4B22C8000F0BAF8200070BD6F
:101F100070B505000E0000F09DF82C88A41BA4B23B
:101F20002C8000F0ADF8200070BD000030B589B005
:101F300000F090F8152101A8FFF76CF921E0039B50
:101F4000019A1A60104D280000F002FD049B019ACE
:101F50001A60280000F0FCFC0134032CEFDD0024A3
:101F60000DE0039B019A1A60084D280000F0F0FC78
:101F7000049B019A1A60280000F0EAFC0134032C4B
:101F8000EFDD0024E9E7C046F0490200801A0600B0
:101F900010B582B0040000220100022000F08AFB8C
:101FA00000F058F800220EE06B46D91D0D230B708F
:101FB0000122022000F07EFB01222100022000F01D
:101FC00079FB227801342378002B04D00A2BF3D13B
:101FD0000D2AF1D0E8E700F053F802B010BD000080
:101FE00010B5A2B002000B00842101A800F07EFF12
:101FF0000400832805D9052206498320684403F09C
:102000000DFF002C01DC22B010BD01A8FFF7C0FFBE
:10201000F9E7C046306C00080FB400B583B004A9DE
:1020200001C90191FFF7DCFF03B008BC04B01847F9
:10203000EFF310830120184043425841C0B270476B
:10204000EFF30580431E9841C0B2704710B5FFF70B
:10205000C1F810BD10B5FFF78FF8064B1B685A1C6E
:1020600003D00133034A136010BD3F2202490348E5
:10207000FFF710FF44050020386C0008646C00086E
:1020800010B5064B1B68002B04D0013B034A1360BC
:10209000002B00D010BDFFF781F8FBE744050020BE
:1020A000F0B583B004000E001700019301684A17D1
:1020B00003231340032B0FD08DB20A14FF231340C8
:1020C0002A002C48FFF7A8FF323DFF3D132D09D809
:1020D000AD00294B5B599F464D42EEE7A16827486A
:1020E000FFF79AFF3000FFF753FF61682448FFF7BE
:1020F00093FF002F09D02348FFF74AFF3800FFF76E
:1021000047FF01992048FFF787FFA1681F48FFF7A5
:1021100083FF21681E48FFF77FFF1E48FFF77CFF03
:1021200003B0F0BDA1681C48FFF776FFDAE7A168AD
:102130001A48FFF771FFD5E7A1681948FFF76CFF50
:10214000D0E7A1681748FFF767FFCBE7A1681648FB
:10215000FFF762FFC6E7A1681448FFF75DFFC1E71C
:10216000A1681348FFF758FFBCE71248FFF754FF78
:10217000B8E7C046986C0008446E0008EC6C000894
:102180009C6D0008B06D0008B86D0008BC6D0008BB
:10219000D06D0008286E0008046D0008146D00085A
:1021A000246D0008386D00084C6D0008606D000853
:1021B000706D0008886D000810B50C48FFF776FEBA
:1021C000002805D0FFF746FFBFF34F8F20BFFDE784
:1021D000FFF736FF002803D1FFF72AFF002801D1BF
:1021E000FFF7A4FE012000F0E5F9C04684050020B9
:1021F0007047000030B591B004000D00002800DBEE
:10220000234C3022002104A803F011FE039405950D
:10221000204BE318012B09D91F4B9C4226D01F4BA2
:102220009C4201D0002302E0012300E00123002BA7
:102230001ED0EB6B04936B6B01930A93FFF70AFFBD
:10224000174A136801331360012B16D0342203A9F7
:10225000144803F0E3FD144B1B68002B13D0114806
:102260009847FFF70DFF002011B030BD0123DEE7D6
:1022700003AB149A0492DB61E0E7342203A90B4814
:1022800003F0CCFDE2E70748FFF7B2FFE9E7C046FD
:102290000101FF80C2FE007F4001FF803D01FF8001
:1022A00048050020880500204C050020500500202E
:1022B0000FB430B585B0754601210F48FFF70FFE0A
:1022C000002801D0FFF778FF0024009523002200AA
:1022D00021000A48FFF78EFF230022000849094821
:1022E000FFF7DEFE09A903910898FFF779FE06487B
:1022F000FFF74EFEE6E7C046B80600200001FF806B
:10230000946E000888050020406E00080020704789
:10231000F0B5C64600B582B0F04606000D001700C5
:102320001C0001210A48FFF7DAFD002801D0FFF761
:1023300043FF43460093089B220039003000FFF71B
:1023400059FF089B220029000248FFF7A9FEEEE78B
:10235000B80600208805002010B5084B1B68002B2C
:1023600002D0064B186810BDFEF75AFF0100044C5E
:102370002000FFF709FB014B1C60F2E7000600207C
:10238000C005002010B582B00400A368002B03D064
:10239000E0689847002840D1214B1A683A23D35C63
:1023A000002B3AD12368DB431E4A61684A4013433D
:1023B00026D101A8FFF7C2FAA368002B03D0E0687A
:1023C0009847002826D1164B1A683A23D35C002B75
:1023D00020D12368DB43134A61684A4013435A42C1
:1023E0005341DAB2002B03D10D4B1A683923D25C6A
:1023F000002A0CD101A8FFF7A7FABFF36F8FC4E73B
:10240000074B186822686368FFF79EFBD1E700F06E
:1024100071F8EFE701A8FFF797FA02B010BDC046C8
:1024200000060020FFFFFF7F70B586B004000E009D
:102430001500002813D0431C16D101225242114B23
:102440000292039304960595FFF786FF02A8FFF713
:1024500099FF0D4B1868FFF7B9FA06B070BD002957
:10246000FBD010008847F8E7FFF776FF01006846C9
:10247000FFF734FB220000230098019912184B410A
:10248000DEE7C046FFFFFF7F0006002000B583B0F7
:1024900001210748FFF72FFD002801D003B000BD40
:1024A000034B1A880023009302490348FFF730FFCB
:1024B00004060020AC6E00082301048000B583B040
:1024C00001210848FFF724FD074B984201D003B0D3
:1024D00000BD044B1A880023009304490448FFF709
:1024E00017FFC04604060020FFFF0000D06E000862
:1024F0002401048010B5FFF7ADFD03F07DF9FFF76F
:10250000BFFD10BD10B5084B1B68002B00D010BDDF
:10251000064C07492000FFF7FDF9962189012000AC
:1025200003F000F8F3E7C046580600201C0900201D
:10253000786F0008002070470120704710B5FFF742
:10254000FBFF431E9841C0B210BD10B5FFF7F4FF6A
:1025500010BD01204042704710B5012000F02AF85C
:10256000074B1B68C018074A824203D3044A106015
:1025700018007047044B0C221A6001204042F8E713
:10258000CC00002000400020B809002070B50400F5
:10259000064D2B68986803F0B3FA2B68D86803F0EF
:1025A000AFFA002C00D1FEE7FFF7C0FCD4000020FA
:1025B0000120704710B5FFF7E9FF01207047704711
:1025C000704710B5FFF7FBFF10BD10B5FFF7F8FF20
:1025D00010BD000010B5027803231340012B11D069
:1025E000037803221A40012A0ED0002A05D10222C4
:1025F0001343DBB20370012010BD044A04490548AF
:10260000FFF748FC0020F7E70020F5E78E06000002
:10261000F06E00081C6F000810B5037803221A4002
:10262000022A07D1032293435BB201221343DBB298
:10263000037010BD024A03490348FFF72BFCC04654
:1026400097060000F06E00083C6F000810B503F01C
:10265000DBFB10BD10B5804710BD10B5FFF7FAFFCA
:1026600010BD70B504000D000378DB0700D570BD08
:10267000FFF7B0FF0028FAD02800FFF7EEFF200098
:10268000FFF7CAFFF3E7000010B502490248FFF761
:10269000E8FF10BD052500081006002010B5040055
:1026A000FFF7F2FF2100024802F01EFA200010BDE1
:1026B0001C09002070B50E0015000138012807D84C
:1026C0000024AC420BD2305DFFF7E8FF0134F8E79D
:1026D00003F044F9092303600120404201E0281E71
:1026E00000DB70BD03F03AF96D4205600120404205
:1026F000F7E70000F0B5D6464F464646C0B58046DF
:102700000D009246002A0ADBFFF718FF002836D09A
:102710002D4B42469B5C99460024002715E003F0B0
:102720001DF91623036001277F422BE00122274970
:102730004046FFF7BFFF00283FDB23DD224B0D2281
:1027400041465A54337899460134A24518DD2E1972
:102750002B5D0A2BF6D14B460D2BF3D0A742E5DAC1
:10276000E919E21B4046FFF7A5FF002822DB3F18CE
:10277000BC4207DC144B424649469954D6E7002731
:10278000BA4505DC38001CBC90469946A246F0BD0F
:10279000E9195346DA1B4046FFF78CFF00280FDB90
:1027A0003F18002FEEDDED19013D2A78064B41461A
:1027B0005A54E7E701277F42E4E701277F42E1E738
:1027C00001277F42DEE7C0460C060020746F000838
:1027D00010B5FFF759FF024802F00CF910BDC046D2
:1027E0001C09002010B50C00002801D0022803D1DC
:1027F000002A08D1002010BD03F0B0F809230360BF
:1028000001204042F7E7FFF7E3FF20700120F2E7E5
:1028100070B582B004000E00151E21DBFFF78EFE9E
:1028200000283CD001226B46D91D2000FFF7DAFFBB
:10283000002831DB12D06B4607331B780D2B16D0E6
:102840000A2B1DD00D2B20D00A2B03D1174A125D65
:102850000D2A1ED0154A13553370012002B070BDE9
:1028600003F07CF81623036001204042F6E70F4A8C
:10287000125D0A2AE4D00D4A13550A233370ECE79F
:102880000A4A125D0D2ADDD0F5E7084A125D0A2AD0
:10289000DAD1064A1355C5E701204042DEE72A0097
:1028A00031002000FFF79EFFD8E7C0460806002051
:1028B00070477047084B9868002306E09A00802113
:1028C0008905511882580A6001332F2BF6DD024B1F
:1028D000802292059A60704700ED00E010B5FFF786
:1028E000E9FF02F009FC02F0F5FF10BD10B5094A3E
:1028F000094B1A60094B9B1A094A1360094A0A4B93
:102900001A600A4B9B1A0A4A1360FFF7E7FFFFF7AA
:10291000D0FF10BD00400020200600200050002005
:102920001C060020C00900201806002000400020DE
:102930001406002010B5FFF7BBFFFFF7E7FCFDF71B
:1029400051FC10BD10B500220021FFF76DFD10BD38
:1029500070B50600FEF7CEFF0400FEF7C6FF0500C7
:102960002000FEF7C2FF401BB042F9D370BD00004B
:1029700070B5140012680E4DAA4218D8049D002D9F
:102980000DD02900180003F0EDF9431C03D0236893
:10299000013323600BE001235B42236007E0002842
:1029A00002D08A4200D2835423680133236070BD71
:1029B000FEFFFF7FF0B5D6464F464646C0B588B00D
:1029C000070088469146109C119D129B9A46230051
:1029D0002B431DD0002302931422002103A803F0EF
:1029E00026FA002623002B4322D00A2200232000AF
:1029F000290003F0ADFD303202AB9A550A220023C4
:102A00002000290003F0A4FD04000D000136E9E7D1
:102A1000534600933023FFF7ABFF0BE0013E02ABC0
:102A20009B5D524600924A4641463800FFF7A0FFA0
:102A3000002EF3D108B01CBC90469946A246F0BDCA
:102A4000F0B5D64600B584B004000D0016000A9B10
:102A50009A460B9F002F0EDB180039000C9B029347
:102A600000900191320029002000FFF7A3FF04B07D
:102A700004BC9246F0BD0C9B00932D23FFF778FF1A
:102A800052463B00002150429941E7E7F0B5DE464F
:102A900057464E464546E0B585B0884692460E9B61
:102AA00003930F9B9B4611AB1B78029307240022D4
:102AB0000700109B994624E02021C91A58468840F7
:102AC000039DDD40054325E02B090F210D400299B0
:102AD000002927D0184E002A01D1002B07D0F35C23
:102AE0004A460092524641463800FFF741FF735D67
:102AF0004A460092524641463800FFF739FF01220C
:102B0000013C002C10DBE300202149425918D3D4AA
:102B10005D46CD40EDB2002AD6D1002DD4D1002C97
:102B2000EED1D1E7054ED6E705B03CBC90469946BC
:102B3000A246AB46F0BDC046A06F0008906F0008EB
:102B4000F0B5CE46474680B583B080460F001600EC
:102B50001C000A9D0B9B99462378002B0BD0002D5F
:102B600009D04A460092320039004046FFF700FF84
:102B70000134013DF0E703B00CBC90469946F0BD2E
:102B8000F0B585B005000E0017001C000A9B0093ED
:102B90003023FFF7EDFE0A9B009378233A003100C3
:102BA0002800FFF7E5FE012303930A9B029300949C
:102BB000E41701943A0031002800FFF767FF05B0E1
:102BC000F0BD0000F0B5D6464F464646C0B588B0C9
:102BD00080460F001400059300230793002A00D1BC
:102BE00065E1002900DA62E103D0013F9946002641
:102BF00014E101239946FAE70132A35C303BDBB2D2
:102C0000092BF9D924E1A11849782A2900D023E118
:102C10000232059B191D0591186821E1531C9A4643
:102C2000002500205346EA18A15C0B00303BDBB2C4
:102C3000092B00D914E183001B185B0030395818A8
:102C40000135EFE7A1184978682900D00CE172231B
:102C500007E0A11849786C2900D008E1822300E040
:102C600011230F2119408A4692445246A55C642DD7
:102C700027D0692D25D0752D56D0782D54D0582DBC
:102C800052D0632D00D199E0732D00D1A3E0702DB7
:102C900000D1AEE0109B0093252307AA39004046DF
:102CA000FFF766FE252D00D0B7E05646B5E021239C
:102CB000D7E73123D5E74123D3E75123D1E7612378
:102CC000CFE7822B0ED0059A111D05911268D117FE
:102CD000212B25D010D9512B24D0722B15D152B2D3
:102CE000D11712E0059AD11D072291430A0008323C
:102CF00005920A684968EBE7002B05D0112B04D137
:102D000011B20A00C91700E0D117109B029300927C
:102D1000019107AA39004046FFF792FE56467CE033
:102D2000D117F2E7D117F0E7822B0DD0059A111DCC
:102D3000059112680021412B31D024D8112B2AD0C3
:102D4000212B0BD100210CE0059AD11D07229143C4
:102D50000A00083205920A684968ECE7002B00D1A6
:102D60000021752D1FD02B00583B5842434103933F
:102D7000109B02930092019107AA39004046FFF789
:102D800085FE564649E0512B0BD0722BE9D1FF232B
:102D90001A400021E5E71204120C0021E1E70021AE
:102DA000DFE7D117DDE7109B02930092019107AA9C
:102DB00039004046FFF7FEFD56462EE0059B1A1DE2
:102DC00005921B78109A009207AA39004046FFF737
:102DD000CFFD564621E0059B1A1D05921B68109AEF
:102DE0000192009007AA39004046FFF7A9FE564617
:102DF00013E0059B1A1D05921B68109A009207AA02
:102E000039004046FFF7BCFE564606E0109A009295
:102E100007AA39004046FFF7ABFD0136A35D002B42
:102E200039D0252BF2D1721CA35C2D2B07D02B2B74
:102E300005D0202B03D0232B01D0302B00D1B21C86
:102E4000A35C2A2B00D0D8E60132059B04330593FE
:102E5000A35C2E2B00D1D6E62E2B00D1DEE619483E
:102E6000A35C682B00D1EDE66C2B00D1F1E6682B5A
:102E700000D1F5E66C2B00D119E76A2B00D118E7D9
:102E80007A2B00D117E7742B00D116E74C2B00D119
:102E900015E70023E5E64346002B08D04B46002B00
:102EA00005D1079BBB4209D8434400221A700798FA
:102EB00008B01CBC90469946A246F0BD474400238A
:102EC0003B70F4E7FFFFFF7F0EB400B584B005ABA5
:102ED00004CB0393002100910349FFF773FE04B074
:102EE00008BC03B01847C046FFFFFF7F10B582B093
:102EF00000240094FFF766FE02B010BD00B583B059
:102F0000130000900A0003490020FFF75BFE03B0A6
:102F100000BDC046FFFFFF7F104B196880225200A2
:102F20000A431A60DA680E490A40DA601A680D49E5
:102F30000A401A609A6801218A439A601A680A490D
:102F40000A401A60DA6809490A40DA6000221A6108
:102F5000074B802212059A607047C046001002405D
:102F60000C40FF88F6FFF6FEFFFFFBFFFFFF02FFAE
:102F700000ED00E010B5A2B0142200211DA802F05F
:102F800056FF382200210FA802F051FF2422002111
:102F900006A802F04CFF18220021684602F047FF05
:102FA0002C4B996B802252050A439A632A48026887
:102FB0002A491140802212010A4302609A6B284973
:102FC0000A409A6323230F93002310930122129245
:102FD00015920F3213920E3A19921A9380231B0303
:102FE0001B9380231B041C930FA800F03BF9041EC5
:102FF00003D00024200022B010BD4023069380237C
:10300000DB040E9306A800F059FD0F231D930C3B23
:103010001E9300231F932093219301211DA800F0EC
:1030200057FC0028E6D10B4A916B80231B050B430C
:1030300093630023009380239B050193094B039323
:1030400022230493023B0593684600F08FFF01346E
:10305000D0E7C0460010024000700040FFE7FFFFCD
:10306000FFFFFFEF7FBB000010B5FFF783FF0028D5
:1030700000D010BD0148FFF71BF9C046B87000082A
:1030800008488546002103E0074B5B584350043154
:103090000648074B42189A42F6D3FFF73DFFFDF76B
:1030A00033F8FEE7005000203C740008C000002008
:1030B00048010020FEE7704710B5064A1368022158
:1030C0000B431360032001F0D7FDFFF7F4FF00204E
:1030D00010BDC046002002407047000070B5041EBD
:1030E0003AD02E23C35C002B28D02E230222E25498
:1030F0002568EB686068012826D0626917498A4212
:1031000001D017490B4017491940A3680343266AA9
:103110003343666A3343A66A33430B43012816D010
:103120000E498A4204D0A1690A43E1690A43134364
:10313000EB602E230122E254002070BD2D330022CB
:10314000C254FFF7C9FFD0E71C329343D5E7E168CB
:10315000206901430B43E3E70120EEE7FFFF000096
:103160003F1FFFFFFEF119FF10B52E230222C254AC
:103170004368012B04D080231B04826A9A420FD03B
:10318000046823690122134323610368996101687C
:103190000B69042423430B612E23C254002010BD6D
:1031A0000268D368014C2340D360E9E7FFF1FFFFD9
:1031B00010B5094A13680324A34303431360074A65
:1031C0001369042083431361012903D040BF20BF4A
:1031D00020BF10BD30BFFCE70070004000ED00E0F4
:1031E00030B51C4BDB68F02214001C401A4222D17F
:1031F000184B9B6BDB000ED5174B1B68C02252018E
:103200001340C0225201934216D1C0231B029842A0
:1032100012D1012410E00F4A916B80235B050B4310
:1032200093630D4B1B68C02149010B40916B0B4D03
:1032300029409163E5E7002409490B680122934383
:1032400023430B600B681A40A24201D1002030BD1D
:103250000120FCE70010024000700040FFFFFFEF7C
:103260000020024070B582B004000368DB0740D53F
:10327000CC4BDA680C231340082B32D0C94BDA68E8
:103280000C2313400C2B28D06368802252029342F7
:1032900057D0A022D20293425AD0C24B1A68C249D8
:1032A0000A401A601A68802149020A400192019A74
:1032B0001A68BE490A401A606368002B54D001F0B6
:1032C000E1FC0500B74B1B689B0312D401F0DAFC4C
:1032D000401BC828F6D9032085E2B24BDB68DB032C
:1032E000D2D5B04B1B689B0303D56368002B00D17C
:1032F00070E223689B0759D5AA4BDA680C23134068
:10330000042B43D0A74BDA680C2313400C2B39D085
:10331000E368002B00D1ACE0A2490A68092082438F
:1033200013430B6001F0AEFC05009E4B1B685B076E
:1033300000D595E001F0A6FC401B0228F5D903203A
:1033400051E2984A116880235B020B431360B3E794
:10335000944B19688022D2020A431A6019688022AD
:1033600052020A431A60A7E701F08CFC05008D4B5E
:103370001B689B03BDD501F085FC401BC828F6D90E
:10338000032030E2874BDB68DB03C1D4854B1B682D
:103390005B0703D5E368012B00D01DE281494B6830
:1033A000834A13402269120213434B602368DB06F1
:1033B0003BD57C4BDB680C221A4200D080E0794B75
:1033C0001B689B0503D5E369002B00D106E2606A08
:1033D000744B5B68E0221202134098425CD9FFF7FD
:1033E000FFFE002800D0FBE16E4A536871490B4094
:1033F000616A0B43536053681B021B0A216A09066A
:103400000B435360636A5A0B013280231B029340C3
:10341000644AD16809090F220A4067498A5CD3408F
:10342000664A1360032001F027FC23681B0700D4C1
:1034300092E06369002B7CD05A4A136D01210B4343
:10344000136501F01FFC0500564B1B6D9B0700D553
:1034500082E001F017FC401B0228F5D90320C2E1ED
:1034600050494B68524A13402269120213434B6081
:103470009CE74C4A136801218B43136001F002FC66
:103480000500484B1B685B0790D501F0FBFB401B18
:103490000228F6D90320A6E1424A536845490B4069
:1034A0001843506053681B021B0A216A09060B432C
:1034B0005360606AFFF794FE0028A3D0012092E1D8
:1034C000E369002B22D0374A116880235B000B434D
:1034D000136001F0D7FB0500324B1B689B0506D437
:1034E00001F0D0FB401B0228F6D903207BE12D4AD6
:1034F000536830490B40616A0B43536053681B02A9
:103500001B0A216A09060B4353608EE7254A13689C
:103510002B490B40136001F0B5FB0500214B1B68E4
:103520009B0582D501F0AEFB401B0228F6D9032093
:1035300059E11C4A136D01218B43136501F0A2FB75
:103540000500184B1B6D9B0706D501F09BFB401B2C
:103550000228F6D9032046E123685B0700D48CE0FB
:10356000104B9B6BDB001BD40E4A916B80235B05D9
:103570000B4393630125134B1B68DB0526D5A3681A
:1035800080225200934235D0002B4BD1054B1A6D4F
:103590000B490A401A651A6D0B490A401A652FE05B
:1035A0000025E8E700100240FFFFFEFFFFFFFBFFE2
:1035B000FFE0FFFFFF1FFFFF98710008D000002011
:1035C000FFFEFFFF00700040FFFBFFFF8A4A11680B
:1035D00080235B000B43136001F054FB0600864B15
:1035E0001B68DB05CBD401F04DFB801B6428F6D9AA
:1035F0000320F8E0814A116D80235B000B431365C3
:10360000A368002B28D001F03DFB06007B4B1B6D0F
:103610009B0530D401F036FB801B794B9842F5D9DD
:103620000320E0E0A022D200934209D0734B1A6D30
:1036300074490A401A651A6D73490A401A65DFE732
:103640006E4B196D013AFF3A0A431A65196D8022D3
:1036500052000A431A65D3E701F014FB0600674BDA
:103660001B6D9B0507D501F00DFB801B644B984239
:10367000F5D90320B7E0012D21D023689B063CD566
:10368000A369002B21D05D4B99680120014399600B
:103690005A6B02435A635D4A116A80239B010B43B4
:1036A000136201F0EFFA0500544B9B689B0724D48A
:1036B00001F0E8FA401B0228F6D9032093E04F4AB4
:1036C000936B53490B409363D7E74C4A93680121AE
:1036D0008B4393604D4A136A4E490B40136201F0CD
:1036E000D1FA0500454B9B689B0706D501F0CAFA45
:1036F000401B0228F6D9032075E0A36A002B71D085
:103700003E4AD1680C220A400C2A49D0022B12D022
:103710003A4A136840490B40136001F0B3FA0400C1
:10372000364B1B689B0139D501F0ACFA001B02280F
:10373000F6D9032057E0314A136837490B4013602C
:1037400001F0A0FA05002D4B1B689B0106D501F086
:1037500099FA401B0228F6D9032044E02749CB6898
:103760002E4A1340E26A206B0243606B024313430C
:10377000CB600A6880235B0413430B6001F082FA7C
:1037800004001E4B1B689B0106D401F07BFA001B52
:103790000228F6D9032026E0002024E0002022E0C1
:1037A000164BDB68802252021340E26A93421CD11E
:1037B000124BDB68C02212041340626B934216D195
:1037C0000E4BDB68F02292031340226B934210D120
:1037D000002008E0012006E0012004E0012002E0D2
:1037E000012000E0002002B070BD0120FBE70120B5
:1037F000F9E70120F7E7C0460070004000100240E2
:1038000088130000FFFEFFFFFFFBFFFF00000140E9
:10381000FFFFFFEFFFDFFFFFFFFFFFFEFFFF02FFE6
:1038200010B5264BD9680C230B40082B42D00C2B2B
:1038300011D0042B09D0214B5A68520B0723134097
:10384000013380200002984010BD1C4B1B68DB0632
:1038500032D51B48F8E78A0C0F231340194AD25C73
:10386000890D032319400131144BDB68DB0309D5B3
:103870005001801A8301181AC0008018400202F01B
:10388000DBFDE1E70D4B1B68DB0609D553019B1AF5
:103890009801C01AC0008018000202F0CDFDD3E7E5
:1038A00053019B1A9801C01AC0008018800202F0D0
:1038B000C3FDC9E70448C7E70448C5E70010024054
:1038C00000093D00B071000800127A000024F400E5
:1038D00070B504000D005F4B1A68012313408B4242
:1038E0000AD25C490B68012293432B430B600B689F
:1038F0001A40AA4200D0A7E023689B0706D5564A83
:10390000D368F0218B43A1680B43D3602368DB07A6
:1039100064D56368022B09D0032B29D0012B2DD04D
:103920004D4A1268920506D401208CE04A4A12687A
:10393000920300D48AE04849CA68032082431343B3
:10394000CB6001F09FF906006368022B1CD0032BAB
:1039500028D0012B34D0404BDB680C221A423DD0DA
:1039600001F090F9801B3D4B9842F4D903206AE0A6
:10397000394A12689201DED4012064E0364A1268A6
:103980005207D8D401205EE0334BDA680C23134091
:10399000082B23D001F076F9801B304A9042F3D9EE
:1039A000032050E02C4BDA680C2313400C2B15D06D
:1039B00001F068F9801B294B9842F3D9032042E0BB
:1039C000254BDA680C231340042B07D001F05AF979
:1039D000801B224B9842F3D9032034E01D4B1A6818
:1039E00001231340AB4209D91A490B6801229343C2
:1039F0002B430B600B681A40AA4229D123685B074E
:103A000006D5154AD36816490B40E1680B43D360CD
:103A100023681B0707D51049CB68124A1340226957
:103A2000D2001343CB60FFF7FBFE0B4BDA681209A1
:103A30000F2313400C4AD35CD8400C4B1860032072
:103A400001F01AF9002070BD0120FCE70120FAE71F
:103A50000120F8E700200240001002408813000017
:103A6000FFF8FFFFFFC7FFFF98710008D00000209C
:103A7000014B18687047C046D000002010B5FFF712
:103A8000F7FF044BDA68120A07231340024AD35C9B
:103A9000D84010BD00100240A871000810B5FFF713
:103AA000E7FF044BDA68D20A07231340024AD35CCB
:103AB000D84010BD00100240A871000870B5040085
:103AC00003689B064FD56B4B9B6BDB0000D592E0E8
:103AD000684A916B80235B050B4393630125664B1A
:103AE0001B68DB0500D488E0624B1968C0239B0388
:103AF0001940626813408B4206D0C0239B0211001C
:103B00001940994200D18DE05A4B196DC0239B0298
:103B100008001840194215D01A40824212D023687A
:103B20009B060FD5534B186D544A02401E6D8021E1
:103B3000090331431965196D514E314019651A65F4
:103B4000C30576D46368C0229202190011409142E5
:103B50007ED048490B6DC022920260680240134338
:103B60000B65012D7ED02368DB0706D5414AD36C57
:103B700003218B43A1680B43D36423689B0706D5BD
:103B80003C4AD36C0C218B43E1680B43D36423681C
:103B90005B0706D5374AD36C3A490B4021690B4382
:103BA000D36423681B0706D5324AD36C36490B40D1
:103BB00061690B43D3642368DB0506D52D4AD36CBA
:103BC0002E490B40A1690B43D36423685B0606D5DD
:103BD000284AD36C2D490B40216A0B43D3642368D8
:103BE0001B0645D5234AD36C29490B40E1690B4399
:103BF000D36400203DE0002571E71F4A116880234F
:103C00005B000B43136001F03DF806001A4B1B6884
:103C1000DB0500D568E701F035F8801B6428F5D98D
:103C2000032026E0134B1B689B0300D46CE70120A4
:103C30001FE001F027F806000E4B1B6D9B0581D499
:103C400001F020F8801B134B9842F5D9032010E0B7
:103C500008490A6810480240C0208003034013430B
:103C60000B6076E70A008B6B0C490B4093637AE795
:103C7000002070BD0010024000700040FFFFFCFFFC
:103C8000FFFFF7FFFFF3FFFFFFCFFFFFFFFFFFFB8C
:103C9000FFFFF3FF88130000FFFFCFFFFFFFFFEFE1
:103CA00010B5202809D8002800D134E1202800D9F7
:103CB00033E18000A24B1B589F46402857D08023F9
:103CC0005B00984214D19F4BDA6CC0239B02110019
:103CD00019401A4200D111E180239B02994200D180
:103CE0000FE180235B02994200D111E1002013E132
:103CF000002011E1934B196D1B6DC02292021340FD
:103D000080225202934209D08022920293420AD02A
:103D1000C022920293420AD00020FDE08A05F3D52A
:103D200080200002F8E08A07F2D58748F4E0854B4E
:103D30001A6880239B02100018401A4200D1EBE061
:103D4000804B1B68C022920313408022920393424F
:103D500000D1E4E0C0229203934200D1E1E080224E
:103D60005203934201D07948D6E07948D4E0754BAC
:103D7000DA6C8023DB04110019401A421FD1714B09
:103D80001B689B011BD56F4BD868D968800C0F222C
:103D900002407048805C8A0D032111400131DB68CC
:103DA000DB0305D4674B1B68DB0606D5674B00E0D9
:103DB000694B584302F040FBAEE0684BF9E700293D
:103DC00000D1B0E05F4B9B689B0700D5ADE00020C1
:103DD000A2E05C4BDB6C0322110019401A4207D0B1
:103DE000022908D001290CD003290DD0002093E02E
:103DF000FFF754FE90E0534B1B685B07F2D5574822
:103E00008AE0FFF70DFD87E04E4B1B6D9B0500D54B
:103E10008DE0002080E04B4BDB6C0C221100194040
:103E20001A4207D0082908D004290CD00C290DD03B
:103E3000002071E0FFF722FE6EE0424B1B685B073B
:103E4000F2D5464868E0FFF7EBFC65E03D4B1B6DA3
:103E50009B0500D56EE000205EE03A4BDA6CC02393
:103E60001B01110019401A420DD080231B019942F9
:103E70000CD08023DB0099420ED0C0231B01994255
:103E80000DD0002048E0FFF7F9FD45E02D4B1B6801
:103E90005B07EED531483FE0FFF7C2FC3CE0294B21
:103EA0001B6D9B0549D4002036E0264BDA6CC023FD
:103EB0009B01110019401A4209D080239B019942AD
:103EC00008D080235B0199420AD0002024E0FFF74C
:103ED000D5FD21E01B4B1B685B07F2D51F481BE09B
:103EE000FFF79EFC18E0174B9A6B8023DB03100052
:103EF00018401A4210D0FFF7C1FD0DE0FFF7BEFDDC
:103F00000AE0104B1B685B0700D4EAE6134803E0A5
:103F1000FFF786FC00E0002010BD0020FCE7104801
:103F2000FAE71048F8E70020F6E70F48F4E78020AA
:103F30000002F1E780200002EEE780200002EBE7BC
:103F4000CC700008001002408890000000093D007D
:103F500080841E00B071000800127A000024F40072
:103F600040420F0020A10700006CDC02104B996A50
:103F7000802212050A439A629A6A0E490A409A629E
:103F8000026843681A4383681A43C368134302698B
:103F900012041A43084B5A601A6808490A404169DA
:103FA00009020A431A601A6860210A431A607047BE
:103FB00000100240FFFFFFF7006C0040FFC0FFFF52
:103FC00003688022D205904208D0134A904205D05F
:103FD000124A904202D0124A904203D17022934377
:103FE0004A6813438022D205904208D00A4A904280
:103FF00005D00A4A904202D0094A904203D1094AA8
:104000001340CA68134303608B68C3620B68836202
:10401000012343617047C04600040040000801408E
:1040200000140140FFFCFFFF10B501248C40036A1F
:10403000A3430362036A8A401343036210BD7047BF
:1040400070B5041E14D03523C35C002B0AD035256F
:1040500002236355210001C9FFF7B2FF0123635515
:10406000002070BD34330022C254FFF7E8FFEEE7B2
:104070000120F6E710B53522022383540468236833
:1040800001210B4323608154002010BD10B50400B2
:1040900001220068FFF7C8FF2268136801210B4363
:1040A0001360002010BD7047F8B5040001688368F4
:1040B0000269134342691343C26913430A68B7484C
:1040C000024013430B6022685368B5490B40E16816
:1040D0000B435360A1692268B24B9A4201D0236A14
:1040E00019439368B04803400B4393602368AF4A79
:1040F00093420DD0AE4A93422ED0AE4A934264D042
:10410000AD4A934263D0A74A934236D010250BE0C4
:10411000AA4BDA6C03231340022B46D018D8002B8D
:1041200045D0012B45D104250220FFF7B9FD2668B3
:104130009C4B9E4255D080231B02E2699A4200D1DB
:104140008CE0082D00D95EE1AB009D4AD3589F4614
:10415000032B30D10825E7E7984BDA6C0C2313408A
:10416000082B2AD005D8002B29D0042B29D10425CF
:10417000DAE70C2B27D10825D6E7904BDB6CC02261
:104180001201134080221201934222D007D8002B43
:1041900021D08022D20093421FD10425C4E7C0223F
:1041A000120193421BD10825BEE70225BCE7012579
:1041B000BAE71025B8E71025B6E70225B4E70025D1
:1041C000B2E71025B0E71025AEE70025ACE70025E3
:1041D000AAE70225A8E70025A6E71025A4E71025F1
:1041E000A2E7042D35D00BD8002D2CD0022D05D1FF
:1041F000724B1B68DB062FD4724805E0012544E0B2
:10420000082D1ED180200002626853009B18834253
:1042100000D9F2E01303834200D2F0E0070E060259
:104220005008002180197941002302F091F9664B72
:10423000C218664B9A4200D9E3E02368D860002593
:1042400023E0012521E0FFF719FC0028DCD100253F
:104250001BE0FFF7E5FAF8E75D48D5E7082D54D8ED
:10426000AB005C4AD3589F46400063685B08C018A7
:10427000616802F0E1F880B20F2302009A43401017
:10428000083B184010432368D8602800F8BDFFF7AA
:1042900005FC400063685B08C018616802F0CCF858
:1042A00080B20025E8E7454B1B68DB060AD563684A
:1042B0005808494B9C466044616802F0BDF880B2E2
:1042C0000025D9E763685808444B9C466044616800
:1042D00002F0B2F880B20025CEE7FFF7A1FA400065
:1042E00063685B08C018616802F0A6F880B2002518
:1042F000C2E76368580880235B029C46604461689B
:1043000002F09AF880B20025B6E701250020B3E755
:10431000FFF7B4FB63685B08C018616802F08CF8B3
:1043200023680004000CD860AFE7FFF7B7FB6368B1
:104330005B08C018616802F07FF823680004000C75
:10434000D8600025A1E71D4B1B68DB060BD5616813
:1043500048081F4B9C46604402F06EF80004000CB5
:10436000F060002591E761684808164B9C46604460
:1043700002F062F80004000CF060002585E7FFF70A
:104380004FFA63685B08C018616802F055F823684B
:104390000004000CD860002577E7C046F369FFEF02
:1043A000FFCFFFFF00480040FFF4FFFF003801404F
:1043B00000440040004C004000500040001002400B
:1043C000507100080024F40000FDFFFFFFFC0F0007
:1043D00000093D007471000800127A000048E801ED
:1043E0006168480880231B029C46604402F024F860
:1043F0000004000CF060002547E7012545E7012592
:1044000043E7012541E701253FE7C046436ADB0753
:1044100006D5026853682C490B40816A0B435360F0
:10442000436A9B0706D50268536828490B40C16A56
:104430000B435360436A5B0706D5026853682449FF
:104440000B40016B0B435360436A1B0706D50268A0
:10445000536820490B40416B0B435360436ADB06B2
:1044600006D5026893681C490B40816B0B4393602F
:10447000436A9B0606D50268936818490B40C16BD6
:104480000B439360436A5B060BD50268536814497B
:104490000B40016C0B43536080235B03026C9A4218
:1044A0000AD0436A1B0606D5026853680D490B40C3
:1044B000816C0B4353607047026853680A490B4094
:1044C000416C0B435360ECE7FFFFFDFFFFFFFEFF76
:1044D000FFFFFBFFFF7FFFFFFFEFFFFFFFDFFFFFA0
:1044E000FFFFEFFFFFFFF7FFFFFF9FFFF8B5CE468F
:1044F000474680B506000D0017009946089B984670
:104500003368DC692C40641B63425C41BC4220D1AF
:1045100043460133F4D04346002B05D000F0B2FBF4
:104520004B46C01A4045EBD9326813680B490B4023
:10453000136032689368A331FF318B43936020236B
:104540006922B3540132B35448330022F254032099
:1045500000E000200CBC90469946F8BD5FFEFFFFCE
:1045600030B583B004000023C36600F08BFB050068
:1045700023681B681B070ED423681B685B0717D4CE
:1045800020236922A3540132A35448330022E25469
:10459000002003B030BD80210C4B009303000022AB
:1045A00089032000FFF7A2FF0028E5D00320F0E7F1
:1045B0008021064B00932B000022C9032000FFF747
:1045C00095FF0028DCD00320E3E7C046FFFFFF0192
:1045D00010B5041E30D06923C35C002B22D06923A0
:1045E0002422E2542268136801218B431360636A1A
:1045F000002B1DD12000FFF757FD012811D02268A4
:1046000053680E490B405360226893682A218B43FC
:1046100093602268136829390B4313602000FFF769
:104620009FFF10BD68330022C254FFF73CFDD6E760
:104630002000FFF7EBFEDDE70120F2E7FFB7FFFF09
:1046400030B56823C35C012B10D06822012383544A
:104650006921233343540468236802252B432360D4
:104660002023435400238354002030BD0220FCE764
:1046700030B56823C35C012B10D06822012383541A
:10468000692123334354046823680225AB43236024
:104690002023435400238354002030BD0220FCE734
:1046A00030B56823C35C012B11D0682201238354E9
:1046B0006921233343540468A56880231B042B43DA
:1046C000A3602023435400238354002030BD0220E4
:1046D000FCE7000030B56823C35C012B10D06822D2
:1046E000012383546921233343540468A368054D8F
:1046F0002B40A3602023435400238354002030BD6B
:104700000220FCE7FFFF7FFF10B5304BDA680C2377
:104710001340082B3DD007D8002B22D0042B48D1C2
:104720002B4B2C4A1A6028E00C2B42D1274BD8681F
:10473000D968800C0F2202402748825C880D032133
:1047400001400131DB68DB0327D45001801A83016B
:10475000181AC0008018800201F06EFE1C4B186011
:104760000BE01A4B5A68520B072313400133802287
:1047700012029A401300164A1360144BDA681209A9
:104780000F231340154AD35C114A1168D9401160B8
:1047900010BD0F4B124A1A60EFE75001801A8301D7
:1047A000181AC0008018400201F046FE084B18603D
:1047B000E3E7064B5A68520B07231340013380226C
:1047C00012029A401300024A1360D6E7001002401A
:1047D000D00000200024F400B07100089871000897
:1047E00000127A0010B500F0F7FE041E38DB8300DB
:1047F0001C4A9858002833D0E3001B1B1B011A4A9F
:104800009B58DA69120609D5DA69120606D51B68C3
:104810001B0603D5154B1B6801219847E3001B1BA2
:104820001B01114A9B58DA6992060CD5DA69920687
:1048300009D51B689B0606D5A3000A4A98580B4B5E
:104840001B6800219847E000041B2401064BE35835
:10485000DA69120704D5DA69120701D508221A624B
:1048600010BDC04628060020BC06002024060020FB
:1048700010B50248FFF7B6FF10BDC0460048004023
:1048800010B50248FFF7AEFF10BDC0460050004013
:1048900010B50248FFF7A6FF10BDC046004C00400F
:1048A00010B50248FFF79EFF10BDC046004400400F
:1048B00010B50248FFF796FF10BDC0460038014012
:1048C000034B196043689B000249CA507047C046B9
:1048D000240600202806002070B544680368384884
:1048E000834227D000250020364EB34225D0364ED5
:1048F000B34225D0354EB34225D0354EB34225D0F4
:10490000002A30D0002924D1E3001C1B2401314BA4
:10491000E258136820310B4313602F4B9A68030051
:1049200010339B00D550002803DB012383402B4A22
:10493000136070BD2A4D1B20D6E72A4D1C20D6E7F8
:10494000294D0E20D6E7294D0E20D6E7284D1D20F3
:10495000D6E7E3001C1B24011E4BE258136880219C
:104960000B431360D9E700291AD11A49E3001A1B37
:10497000120155582A682026B2432A601C1B2401C4
:1049800063581B681B06D4D40028D2DB0123834064
:10499000124980228B50BFF34F8FBFF36F8FC8E750
:1049A0000C49E3001A1B120155582A688026B243AD
:1049B0002A601C1B240163581B689B06B9D4E3E7DB
:1049C0000038014000440040004C004000500040CE
:1049D00000480040BC06002000ED00E000E100E0DF
:1049E000B1480008A1480008914800088148000823
:1049F0007148000870B504004568EB005B1B1B01A3
:104A0000374AD3189B6880225201934212D0002B60
:104A100033D1EB005B1B1B01314AD3181B69002B00
:104A200022D1EA00521B12012D4B9B185C33FF224E
:104A30001A8026E0EB005B1B1B01294AD3181B6977
:104A4000002B08D1EA00521B1201254B9B185C3346
:104A5000244A1A8015E0EA00521B1201204B9B18D1
:104A60005C33FF221A800CE0EA00521B12011C4B3F
:104A70009B185C337F221A8003E080225205934208
:104A800013D0EA00521B1201154B9B185C331E8891
:104A9000200000F0C7FC0028FAD0EB005D1B2D01C0
:104AA0000F4BEB58586A304070BDEB005B1B1B018D
:104AB0000B4AD3181B69002B08D1EA00521B1201C4
:104AC000074B9B185C337F221A80DAE7EA00521BFF
:104AD0001201034B9B185C333F221A80D1E7C0467A
:104AE000BC060020FF01000070B504000D00466800
:104AF000200000F0AFFC0028FAD0F3009B1B1B0144
:104B0000024A9B58ED05ED0D9D6270BDBC0600206C
:104B100000B587B0072847D88000254B1B589F4613
:104B2000244AD16A01231943D162D26A1340009307
:104B3000009BA020C00507B000BD1E4AD16A022319
:104B40001943D162D26A13400193019B1A48F2E7DC
:104B5000184AD16A04231943D162D26A13400293DE
:104B6000029B1648E7E7134AD16A08231943D1622A
:104B7000D26A13400393039B1148DCE70D4AD16AC4
:104B800010231943D162D26A13400493049B0D4849
:104B9000D1E7084AD16A80231943D162D26A13400F
:104BA0000593059B0848C6E70848FDF781FBC0460A
:104BB000E07100080010024000040050000800509E
:104BC000000C005000100050001C0050BC71000888
:104BD00010B50400431C08D0F021890000F09EFAB3
:104BE0000F2004400E38A04010BD76220149024833
:104BF000FDF750F9007200082872000870B5040033
:104C00000D0001824B1C18D00B090F201840FFF734
:104C10007FFF06002800FFF7DBFF20606661228A25
:104C20000F2313409B00054A9B58A36133001033A8
:104C300063600833A3602836E66070BDC472000864
:104C400010B51023C05E00F00DFB10BD10B500299B
:104C500008D14469836922685B435900CB189A43A1
:104C6000226010BD4469836922685B435900C918FA
:104C70008A4313432360F4E710B500F0E3FD0020FE
:104C800010BD00000E4B596A0E4A1388CB1A1B0444
:104C90001B0C0D4800881B1811800020FA2292007E
:104CA000934204D30130094A94466344F6E7064A26
:104CB0001380074B1A689446604418607047C046DA
:104CC000000801403E0600203C06002018FCFFFFC3
:104CD000400600200048704794720008044BD869D1
:104CE000034BDB69834202D0014BD869F8E7704778
:104CF000007C004010B5FDF7ADF9084B01221A7099
:104D0000074B00221A70074B802292018021490034
:104D10005A501A60FDF7B4F910BDC046490600208C
:104D20005006002000E100E010B5FDF793F9164BA6
:104D30001B78002B09D1154B1B681A681207FAD58E
:104D400008225A60104B073A1A70114B1B78002B3F
:104D500013D100230F4A13700F4A13700F4B802298
:104D6000920180215A50BFF34F8FBFF36F8F0131F3
:104D7000FF315A50FDF784F910BDFDF79FFB044B3E
:104D800000221A70E5E7C0464A060020EC08002021
:104D900052060020500600204906002000E100E0F5
:104DA00030B599B03E4B1B68002B00D06BE03C4BFC
:104DB00001221A601F32002110A801F038F83422B5
:104DC000002102A801F033F804230193FC3303937C
:104DD000803B0F93C0231B03169301A8FEF742FAF2
:104DE000002853D10FA8FEF769FE002851D12D4BA2
:104DF000996B8022120611439963996A0A439A6259
:104E00009A6A520052089A622748284B036000238E
:104E10002E22835443608360254A42618022D2025D
:104E20008261C3610361036243628362FEF756F9E4
:104E3000002831D11F4B9B681F4A5A671F4B1968C6
:104E4000802292051143196099680A439A60164CB2
:104E500023689A6801210A439A609A6808252A43C0
:104E60009A6013492000FEF77FF9226855600023FD
:104E7000536113681B07FCD508235360104B0122B4
:104E80001A7019B030BDFFF74FFFFAE70D48FDF774
:104E90000FFA0D48FDF70CFA0C48FDF709FAC04669
:104EA0004406002000100240EC080020007C004076
:104EB000FFFF000000ED00E0E54F000800040140A6
:104EC0004A0600203C720008587200087C720008F4
:104ED00010B5FDF7BFF8064B1B6801225A60054A62
:104EE000C0235B0080218901D150FDF7C9F810BDB6
:104EF000EC08002000E100E070B50400FDF7AAF81E
:104F0000FFF7ECFE05002D4B1C602D4B802292011B
:104F10001A602C4B1B78002B23D1631F2A4A934223
:104F20000BD92A4B984208D9294B01221A70063412
:104F30002404240C214B1C6009E0254B00221A702C
:104F40001E4B1B68AB4208D3224B01321A70224B16
:104F500001221A70FDF794F870BD1E4B00221A70E2
:104F6000F5E7FFF7B5FF002301E00133DBB2042BC7
:104F700008D85A191204120CA242F6D1053424049E
:104F8000240CF2E7AC4208D2104B9D4205D8134BDB
:104F90001B68012252425A6102E0104B1B685C619F
:104FA000084B00221A700E4B1B78002BD2D1FDF754
:104FB0006DFA0B4B01221A70CCE7C0464C0600205C
:104FC00000E100E04A060020F5FF0000FAFF0000C3
:104FD000510600204806002050060020EC08002062
:104FE0005206002010B5FDF735F8374B1B78002B23
:104FF00038D1364B1B681A68D20702D59A68D20797
:105000003AD4324B1B681A68120724D59A681207E3
:1050100021D508225A602E4B073A1A702D4B1B7867
:10502000002B2ED12C4B1B78002B14D02B4B1B7834
:10503000002B2CD12A4B1B78002B05D0FFF74EFEFE
:10504000284B1B68984239D2264B1868FFF754FF4B
:10505000214B00221A70244B802292055A61FDF7E1
:105060000FF810BD184B00221A70184B1B68013244
:105070005A60FCF7D9F8BCE701225A60FCF7D4F873
:10508000BFE7FDF71BFA134B00221A70CAE7FFF7C0
:1050900025FE06300004000C124B1B68984205D315
:1050A000FFF728FE0D4B00221A70D1E70D4B186850
:1050B00006380004000CFFF71FFFF3E7FFF71AFEA6
:1050C000074B00221A70C3E749060020EC080020B5
:1050D0004A060020520600205006002051060020FB
:1050E000480600204C0600200004014010B5FFF7E0
:1050F0001BFE10BD7047000010B5FFF705FBFDF764
:10510000DBFFFDF7B1FFFFF7FFFAFFF7F3FF024BFD
:1051100001221A6010BDC04654060020F8B5CE46E4
:10512000474680B507000E00431C00D188E00724E5
:105130000C408B120F20034099468B110340984678
:105140003B0918400F233B409B00434A9D58FFF703
:10515000DFFC43460F2B2BD083682A006A435100A3
:1051600089188B4341464A4313438360022C2CD059
:1051700027D8002C51D0012C4AD1210003682A00E5
:105180006A435700BF18BB434A4313430360013CC3
:10519000012C44D9361103210E40012E49D0022E94
:1051A00052D0C3686D436A005519AB43C36047E0F2
:1051B0008268290069434B005B189A43134383605C
:1051C000D4E7032C24D12100D8E70F233B409B00D8
:1051D000214A9B583A070ED5416A1B0A1A005A43C6
:1051E0005A4353431A01D21A91434A4653430B433D
:1051F00043622100C2E7016A1A005A435A435343EB
:105200001A01D21A91434A4653430B430362F0E713
:105210007D2212491248FCF73DFE2100AEE733071C
:1052200003D543682B434360B4E74368AB43436013
:10523000B0E7C3686D436A00521993431D43C560CC
:105240000CBC90469946F8BDC3686D436A00551979
:10525000AB431343C360F3E7C47200089C720008B9
:10526000386F0008F0B5C64600B503000C00421CBC
:1052700035D002090F2010400F2213409B001C4A1A
:105280009B589846FFF744FC050000684646764365
:105290007700BF193840310001F0CEF801380128FD
:1052A0000BD9032C17D0012C15D0052C1AD0022CA9
:1052B00018D0EB68BB43EB6011E0E31EDBB2022BBE
:1052C00004D86B6842461A436A60EAE76B68424654
:1052D00093436B60E5E7EB68BB431E43EE6004BCA1
:1052E0009046F0BDEB68BB4376001E43EE60F6E7E8
:1052F000C47200080FB400B583B004AA02CA0192B8
:10530000044B1B68D868FDF7F9FD03B008BC04B076
:105310001847C046D400002070B50400354B026821
:105320009A4221D0344B22689A422BD0334B2268C8
:105330009A4235D0324B22689A423FD0314B226894
:105340009A4249D0F025AD001823E05E2900FFF70E
:10535000E5FE1A23E05E2900FFF7E0FE63689B008C
:10536000294A0021995070BD284B596A8022D201E8
:105370000A435A62596A2648014059625A6B0240F0
:105380005A63CFE7214B996A802292020A439A62BC
:10539000996A2048014099629A6B02409A63C5E776
:1053A0001A4B996A802212030A439A62996A1A4830
:1053B000014099629A6B02409A63BBE7134B996A6A
:1053C000802252030A439A62996A14480140996202
:1053D0009A6B02409A63B1E70C4B996A8022D20221
:1053E0000A439A62996A0E48014099629A6B024098
:1053F0009A63A7E70038014000440040004C004099
:1054000000500040004800402806002000100240E4
:10541000FFBFFFFFFFFFFDFFFFFFF7FFFFFFEFFFF6
:10542000FFFFFBFF4168CA00521A1201084BD35814
:10543000DA69120701D508221A62CB005B1A1B0138
:10544000034A9B58DB6920201840431E984170474F
:10545000BC0600204268D3009B1A1B01034A9B58DC
:10546000DB6980201840431E98417047BC0600202D
:1054700070B54268D3009C1A2401284D6419016854
:105480009B1A1B01595183686360C368A360036959
:10549000E36043692361036AA3610023E36125009C
:1054A00052352B80023D2B800A352B80023D2B800C
:1054B000236263621A25435F013311D01825435FCD
:1054C000013310D0D3009A1A1201144B9A180C23EE
:1054D0005361134B99420ED02000FFF779F870BD4D
:1054E00008236361F5E7D3009A1A12010B4B9A184F
:1054F00004235361EDE7826896239B019A4206D804
:105500002000FFF7CDF82000FFF79AF8E4E720002D
:10551000FFF7E0F82000FFF7ABF8DDE7BC0600205E
:105520000048004030B599B004000D008160274B61
:1055300002689A4222D12022002102A800F077FCC2
:105540000423019396239B019D4207DC204B1B6D96
:105550009B051AD51E4B1B6D9B0525D40023059377
:1055600001A8FEF7ABFA2000FFF782FF00280AD05F
:105570008023DB00059301A8FEF7A0FA2000FFF7C7
:1055800077FF00281CD119B030BD342200210BA8B0
:1055900000F04DFC04230A93FC330C93FF3B14935F
:1055A0000AA8FDF75FFED5E7C0231B01059301A8FC
:1055B000FEF784FA2000FFF75BFF0028CED1E2E778
:1055C00029000448FFF796FEDDE7C046004800408A
:1055D00000100240047300080D4B984210D00D4B90
:1055E00098420FD00C4B98420ED00C4B98420DD0E5
:1055F0000B4B984201D10420704701204042FBE749
:105600000020F9E70120F7E70220F5E70320F3E7A0
:105610000038014000440040004C00400050004071
:105620000048004070B504000D000B6803605A1C70
:1056300041D03C4A934243D03B4B22689A4246D0E9
:105640003A4B22689A4249D0394B22689A424CD050
:10565000384B22689A424FD02068FFF7BDFF606048
:10566000002850DB0423E85EA968FFF757FD0423F8
:10567000E85E0121FFF7F6FD0C23E85E2969FFF7DC
:105680004DFD0C23E85E0121FFF7ECFD96239B0105
:10569000A3600023E3602361636123620422AB5EA5
:1056A00023830C22AB5E63832000FFF7E1FE2B7D9A
:1056B000002B2DD170BD3E221F492048FCF7EAFB8C
:1056C0001F4A516B8023DB010B435363B4E71C4A31
:1056D000916B80239B020B439363B1E7184A916B54
:1056E00080231B030B439363AEE7154A916B802322
:1056F0005B030B439363ABE7114A916B8023DB029F
:105700000B439363A8E79D220B490E48FCF7C2FBAD
:105710000D4B01221A604B3221000C4800F07EFB39
:10572000C8E7C0460038014000440040004C00403B
:105730000050004000480040307300085C730008CF
:105740000010024078730008580600201C09002051
:10575000F0B5D6464F464646C0B586B081460C00E9
:105760001500224B984619002000FBF78FFD06001C
:105770001F4F39002800FBF789FD01003000FBF7BF
:105780005FFD824641462000FBF79AFD80463900C6
:105790002800FBF795FD0700022C24D0032D17D11C
:1057A0000123524600926A469480424602926A461B
:1057B000958104975A1E93416A4613756946484677
:1057C000FFF730FF06B01CBC90469946A246F0BDDC
:1057D00006490220FBF75AFDB04201D00023E0E762
:1057E0000448FCF765FD0123DBE7C0463470000880
:1057F000B06F00088C73000810B5FCF72BFC01217A
:105800000020FDF7D5FCFCF73BFC10BD10B5094BA3
:10581000094A13601B699B0703D5064BDB689B078E
:1058200000D410BD034B032252421A61FCF766F804
:10583000F7E7C046000801406C09002000487047A7
:10584000C473000810B51A4B5A6B04210A435A63FB
:105850005A6A0A435A625A6A8A435A62FEF754FFE6
:10586000144C154B2360154BE360154B1868154914
:1058700000F0E2FD0138606000232361A360200096
:10588000FEF7DEFB00212000FEF700FC0E4B9A68BD
:105890000E499023D1500E4B802252031A602000F3
:1058A000FEF7E8FB2268D36802218B43D36010BD6A
:1058B000001002406C09002000080140FFFF0000BA
:1058C000D000002040420F0000ED00E00D5800081D
:1058D00000E100E010B505480268D36802218B435F
:1058E000D3600021FEF7D2FB10BDC0466C0900203A
:1058F000014B586A7047C04600080140054B1B68C1
:105900005863032252421A61DA6802210A43DA60BC
:105910007047C0466C090020064B1B6803225242A8
:105920001A615969022001435961DA680243DA6059
:105930007047C0466C090020034B1A68D3680221E7
:105940008B43D3607047C0466C090020024B1B6834
:10595000032252421A6170476C090020014B1868FB
:105960007047C046D4000020F7B58B8905000C00B5
:105970001A075FD44A68002A04DC0A6C002A01DC9A
:105980000020FEBDE76A002FFAD0002280212E6899
:105990002A601A0049010A400B4234D0606DA38985
:1059A0005B0706D56368C01A636B002B01D0236CBC
:1059B000C01A0200216A00232800E76AB847A189BB
:1059C000431C06D12B681D2B31D82C4ADA40D30753
:1059D0002DD50023636023692360CB0405D5431CC8
:1059E00002D12B68002B00D16065616B2E6000290D
:1059F000C6D023004433994202D02800FCF745FA70
:105A000000206063BDE701232800216AB847431CDA
:105A1000C5D12B68002BC2D01D2B01D0162B01D174
:105A20002E60ADE74023A2891343A381A9E7402359
:105A30000B43FAE70F69002FA2D00A680F60D21B50
:105A4000019200229B0700D14A69A260019B002BB2
:105A500000DC95E73A002800019B216AA66AB0475E
:105A6000002806DC40230120A28940421343A38181
:105A700087E7019B3F181B1A0193E7E701004020CD
:105A80000B6970B505000C00002B02D10025280021
:105A900070BD002804D08369002B01D100F0A8F864
:105AA000144B9C421BD16C680C22A35E002BEDD0E2
:105AB000626ED20704D49B0502D4A06D00F0A1F958
:105AC00028002100FFF750FF636E0500DB07DED4DE
:105AD000A3899B05DBD4A06D00F094F9D7E7064BB2
